{
  "contractName": "Token",
  "abi": [
    {
      "constant": false,
      "inputs": [
        {
          "name": "to",
          "type": "address"
        }
      ],
      "name": "init",
      "outputs": [
        {
          "name": "",
          "type": "bool"
        }
      ],
      "payable": false,
      "stateMutability": "nonpayable",
      "type": "function"
    },
    {
      "constant": true,
      "inputs": [
        {
          "name": "",
          "type": "address"
        }
      ],
      "name": "balances",
      "outputs": [
        {
          "name": "",
          "type": "uint256"
        }
      ],
      "payable": false,
      "stateMutability": "view",
      "type": "function"
    },
    {
      "constant": true,
      "inputs": [
        {
          "name": "tokenOwner",
          "type": "address"
        }
      ],
      "name": "balanceOf",
      "outputs": [
        {
          "name": "balance",
          "type": "uint256"
        }
      ],
      "payable": false,
      "stateMutability": "view",
      "type": "function"
    },
    {
      "constant": false,
      "inputs": [
        {
          "name": "to",
          "type": "address"
        },
        {
          "name": "tokens",
          "type": "uint256"
        }
      ],
      "name": "transfer",
      "outputs": [
        {
          "name": "success",
          "type": "bool"
        }
      ],
      "payable": false,
      "stateMutability": "nonpayable",
      "type": "function"
    },
    {
      "inputs": [],
      "payable": false,
      "stateMutability": "nonpayable",
      "type": "constructor"
    }
  ],
  "bytecode": "0x6060604052341561000f57600080fd5b6101ba8061001e6000396000f3006060604052600436106100615763ffffffff7c010000000000000000000000000000000000000000000000000000000060003504166319ab453c811461006657806327e235e31461009957806370a08231146100ca578063a9059cbb146100e9575b600080fd5b341561007157600080fd5b610085600160a060020a036004351661010b565b604051901515815260200160405180910390f35b34156100a457600080fd5b6100b8600160a060020a036004351661012c565b60405190815260200160405180910390f35b34156100d557600080fd5b6100b8600160a060020a036004351661013e565b34156100f457600080fd5b610085600160a060020a0360043516602435610159565b600160a060020a031660009081526020819052604090206103e89055600190565b60006020819052908152604090205481565b600160a060020a031660009081526020819052604090205490565b600160a060020a03338116600090815260208190526040808220805485900390559184168152208054820190556001929150505600a165627a7a723058201daffc582496612a1686e961e3963ae9a37ac48f080ae8b3b14abd377a5a248e0029",
  "source": "pragma solidity ^0.4.17;\r\n\r\ncontract Token {\r\n\r\n     // Balances for each account\r\n     mapping(address => uint256) public balances;\r\n\r\n     // Get the token balance for account `tokenOwner`\r\n     function balanceOf(address tokenOwner) public constant returns (uint balance) {\r\n         return balances[tokenOwner];\r\n     }\r\n\r\n    function Token() {\r\n        // hi\r\n    }\r\n\r\n     // Transfer the balance from owner's account to another account\r\n     function transfer(address to, uint tokens) public returns (bool success) {\r\n         balances[msg.sender] -= tokens;\r\n         balances[to] += tokens;\r\n         return true;\r\n     }\r\n\r\n     function init(address to) public returns (bool) {\r\n         balances[to] = 1000;\r\n         return true;\r\n     }\r\n\r\n\r\n\r\n }\r\n",
  "sourcePath": "C:\\Users\\Nagaganesh Jaladanki\\OneDrive\\Documents\\Coding\\Legacy\\contracts\\Token.sol",
  "compiler": {
    "name": "solc",
    "version": "0.4.18+commit.9cf6e910.Emscripten.clang"
  },
  "schemaVersion": "1.0.1",
  "updatedAt": "2018-01-17T15:35:34.757Z"
}