{
  "contractName": "Token",
  "abi": [
    {
      "constant": true,
      "inputs": [
        {
          "name": "tokenOwner",
          "type": "address"
        }
      ],
      "name": "balanceOf",
      "outputs": [
        {
          "name": "",
          "type": "uint256"
        }
      ],
      "payable": false,
      "stateMutability": "view",
      "type": "function"
    },
    {
      "constant": false,
      "inputs": [
        {
          "name": "to",
          "type": "address"
        },
        {
          "name": "tokens",
          "type": "uint256"
        }
      ],
      "name": "transfer",
      "outputs": [
        {
          "name": "",
          "type": "bool"
        }
      ],
      "payable": false,
      "stateMutability": "nonpayable",
      "type": "function"
    }
  ],
  "bytecode": "0x6060604052341561000f57600080fd5b6101028061001e6000396000f30060606040526004361060485763ffffffff7c010000000000000000000000000000000000000000000000000000000060003504166370a082318114604d578063a9059cbb146088575b600080fd5b3415605757600080fd5b607673ffffffffffffffffffffffffffffffffffffffff6004351660c8565b60405190815260200160405180910390f35b3415609257600080fd5b60b473ffffffffffffffffffffffffffffffffffffffff6004351660243560ce565b604051901515815260200160405180910390f35b50600090565b6000929150505600a165627a7a72305820c6563397d0e959b54bd800359aa1b608cb049ffdbebaade6ea0fbd096d89bc0a0029",
  "source": "pragma solidity ^0.4.17;\r\n\r\ncontract Token {\r\n  function balanceOf(address tokenOwner) public constant returns (uint256){}\r\n  function transfer(address to, uint256 tokens) public returns (bool) {}\r\n}\r\n\r\ncontract Will{\r\n\r\n    struct Beneficiary {\r\n        address person;\r\n        uint256 amount;\r\n    }\r\n\r\n    struct Trustee {\r\n        bool permission;\r\n        bool vote;\r\n    }\r\n\r\n    uint256 public totalTokens = 1000;\r\n    uint256 public tokensUsed = 0;\r\n    address public owner;\r\n    uint256 public endTime;\r\n    Beneficiary[] public beneficiaries;\r\n    mapping(address=>Trustee) trustees;\r\n    uint8 public numYes = 0;\r\n    uint8 public numTrustees = 0;\r\n\r\n    mapping(address=>uint256) public tokens;\r\n\r\n\r\n\r\n    // up to the person to give the person this contract the\r\n    // access to their propy tokens\r\n    // address public propyToken = 0x2869b5844cc6ad66d19f3cebccf17c0062fdcd83;\r\n\r\n    // Token accessToken = Token(propyToken);\r\n\r\n    modifier onlyOwner {\r\n        require(msg.sender == owner);\r\n        _;\r\n    }\r\n\r\n    modifier isDead {\r\n        require(checkDeath()==true);\r\n        _;\r\n    }\r\n\r\n    // constructor\r\n    function Will() public {\r\n        owner = msg.sender;\r\n    }\r\n\r\n    function tokensLeft() public constant returns (uint256) {\r\n        // totalTokens = accessToken.balanceOf(address(this));\r\n        return totalTokens - tokensUsed;\r\n    }\r\n\r\n    function setBeneficiary(address _beneficiary, uint256 _amount) onlyOwner public {\r\n        // require((totalTokens-tokensUsed-_amount) > 0);\r\n        tokensUsed += _amount;\r\n        beneficiaries.push(Beneficiary(_beneficiary, _amount));\r\n    }\r\n\r\n    function setTrustee(address _trustee) public onlyOwner {\r\n        numTrustees += 1;\r\n        trustees[_trustee]=Trustee(true, false);\r\n    }\r\n\r\n    function declareDead() public {\r\n        require(trustees[msg.sender].permission==true);\r\n        require(trustees[msg.sender].vote==false);\r\n        trustees[msg.sender].vote=true;\r\n        numYes += 1;\r\n    }\r\n\r\n    // conditions to check: time is more than kill switch OR\r\n    // more than half of trustees said yes\r\n    function checkDeath() view public returns (bool) {\r\n        if(numTrustees > 0) {\r\n            if(numYes*2 > numTrustees) {\r\n                return true;\r\n            }\r\n            return false;\r\n        }\r\n        return false;\r\n    }\r\n\r\n    function sendFunds() public isDead {\r\n        for(uint i=0; i<beneficiaries.length; i++) {\r\n            // accessToken.transfer(beneficiaries[i].person, beneficiaries[i].amount);\r\n            tokens[beneficiaries[i].person] += beneficiaries[i].amount;\r\n        }\r\n    }\r\n\r\n    //use in case you want your tokens back\r\n    function destroy() public onlyOwner {\r\n        // accessToken.transfer(owner, getNumTokens());\r\n        tokens[owner] = totalTokens;\r\n        selfdestruct(owner);\r\n    }\r\n}\r\n",
  "sourcePath": "C:\\Users\\Nagaganesh Jaladanki\\OneDrive\\Documents\\Coding\\GitHub\\Covenant\\contracts\\Will.sol",
  "compiler": {
    "name": "solc",
    "version": "0.4.18+commit.9cf6e910.Emscripten.clang"
  },
  "schemaVersion": "1.0.1",
  "updatedAt": "2018-01-14T19:02:41.293Z"
}