{
  "contractName": "Will",
  "abi": [
    {
      "constant": true,
      "inputs": [],
      "name": "tokensUsed",
      "outputs": [
        {
          "name": "",
          "type": "uint256"
        }
      ],
      "payable": false,
      "stateMutability": "view",
      "type": "function"
    },
    {
      "constant": true,
      "inputs": [],
      "name": "endTime",
      "outputs": [
        {
          "name": "",
          "type": "uint256"
        }
      ],
      "payable": false,
      "stateMutability": "view",
      "type": "function"
    },
    {
      "constant": false,
      "inputs": [],
      "name": "declareDead",
      "outputs": [],
      "payable": false,
      "stateMutability": "nonpayable",
      "type": "function"
    },
    {
      "constant": false,
      "inputs": [
        {
          "name": "_beneficiary",
          "type": "address"
        },
        {
          "name": "_amount",
          "type": "uint256"
        }
      ],
      "name": "setBeneficiary",
      "outputs": [],
      "payable": false,
      "stateMutability": "nonpayable",
      "type": "function"
    },
    {
      "constant": true,
      "inputs": [],
      "name": "totalTokens",
      "outputs": [
        {
          "name": "",
          "type": "uint256"
        }
      ],
      "payable": false,
      "stateMutability": "view",
      "type": "function"
    },
    {
      "constant": false,
      "inputs": [],
      "name": "destroy",
      "outputs": [],
      "payable": false,
      "stateMutability": "nonpayable",
      "type": "function"
    },
    {
      "constant": false,
      "inputs": [],
      "name": "sendFunds",
      "outputs": [],
      "payable": false,
      "stateMutability": "nonpayable",
      "type": "function"
    },
    {
      "constant": true,
      "inputs": [],
      "name": "owner",
      "outputs": [
        {
          "name": "",
          "type": "address"
        }
      ],
      "payable": false,
      "stateMutability": "view",
      "type": "function"
    },
    {
      "constant": true,
      "inputs": [],
      "name": "getNumTokens",
      "outputs": [
        {
          "name": "",
          "type": "uint256"
        }
      ],
      "payable": false,
      "stateMutability": "view",
      "type": "function"
    },
    {
      "constant": false,
      "inputs": [
        {
          "name": "_trustee",
          "type": "address"
        }
      ],
      "name": "setTrustee",
      "outputs": [],
      "payable": false,
      "stateMutability": "nonpayable",
      "type": "function"
    },
    {
      "constant": true,
      "inputs": [],
      "name": "propyToken",
      "outputs": [
        {
          "name": "",
          "type": "address"
        }
      ],
      "payable": false,
      "stateMutability": "view",
      "type": "function"
    },
    {
      "constant": true,
      "inputs": [],
      "name": "checkDeath",
      "outputs": [
        {
          "name": "",
          "type": "bool"
        }
      ],
      "payable": false,
      "stateMutability": "view",
      "type": "function"
    },
    {
      "inputs": [
        {
          "name": "_endTime",
          "type": "uint256"
        },
        {
          "name": "_owner",
          "type": "address"
        }
      ],
      "payable": false,
      "stateMutability": "nonpayable",
      "type": "constructor"
    }
  ],
  "bytecode": "0x6060604052600080805560015560068054752869b5844cc6ad66d19f3cebccf17c0062fdcd830000600160b060020a0319909116179081905560078054600160a060020a03191662010000909204600160a060020a0316919091179055341561006757600080fd5b6040516040806107c88339810160405280805191906020018051600393909355505060028054600160a060020a031916600160a060020a03909216919091179055610711806100b76000396000f3006060604052600436106100a05763ffffffff60e060020a6000350416632575c3bf81146100a55780633197cbb6146100ca5780636f92e149146100dd5780636fd1f270146100f25780637e1c0c091461011457806383197ef0146101275780638d68cf591461013a5780638da5cb5b1461014d578063cd2ed8fb1461017c578063d0d1ea701461018f578063d171cf41146101ae578063f2622937146101c1575b600080fd5b34156100b057600080fd5b6100b86101e8565b60405190815260200160405180910390f35b34156100d557600080fd5b6100b86101ee565b34156100e857600080fd5b6100f06101f4565b005b34156100fd57600080fd5b6100f0600160a060020a0360043516602435610286565b341561011f57600080fd5b6100b861033d565b341561013257600080fd5b6100f0610343565b341561014557600080fd5b6100f06103f4565b341561015857600080fd5b6101606104ed565b604051600160a060020a03909116815260200160405180910390f35b341561018757600080fd5b6100b86104fc565b341561019a57600080fd5b6100f0600160a060020a036004351661057c565b34156101b957600080fd5b61016061060b565b34156101cc57600080fd5b6101d4610620565b604051901515815260200160405180910390f35b60015481565b60035481565b600160a060020a03331660009081526005602052604090205460ff16151560011461021e57600080fd5b33600160a060020a0316600090815260056020526040902054610100900460ff161561024957600080fd5b600160a060020a0333166000908152600560205260409020805461ff0019166101001790556006805460ff8181166001011660ff19909116179055565b60025433600160a060020a039081169116146102a157600080fd5b60008160015460005403031115156102b857600080fd5b600180548201815560048054909181016102d28382610678565b9160005260206000209060020201600060408051908101604052600160a060020a0386168152602081018590529190508151815473ffffffffffffffffffffffffffffffffffffffff1916600160a060020a0391909116178155602082015181600101555050505050565b60005481565b60025433600160a060020a0390811691161461035e57600080fd5b600754600254600160a060020a039182169163a9059cbb911661037f6104fc565b60006040516020015260405160e060020a63ffffffff8516028152600160a060020a0390921660048301526024820152604401602060405180830381600087803b15156103cb57600080fd5b6102c65a03f115156103dc57600080fd5b50505060405180515050600254600160a060020a0316ff5b60006103fe610620565b151560011461040c57600080fd5b5060005b6004548110156104ea5760075460048054600160a060020a039092169163a9059cbb91908490811061043e57fe5b600091825260209091206002909102015460048054600160a060020a03909216918590811061046957fe5b90600052602060002090600202016001015460006040516020015260405160e060020a63ffffffff8516028152600160a060020a0390921660048301526024820152604401602060405180830381600087803b15156104c757600080fd5b6102c65a03f115156104d857600080fd5b50505060405180515050600101610410565b50565b600254600160a060020a031681565b600754600090600160a060020a03166370a0823130836040516020015260405160e060020a63ffffffff8416028152600160a060020a039091166004820152602401602060405180830381600087803b151561055757600080fd5b6102c65a03f1151561056857600080fd5b505050604051805160008190559150505b90565b60025433600160a060020a0390811691161461059757600080fd5b6006805460ff61010080830482166001019091160261ff00199091161790556040805190810160409081526001825260006020808401829052600160a060020a038516825260059052208151815460ff1916901515178155602082015181549015156101000261ff00199091161790555050565b600654620100009004600160a060020a031681565b600060035442111561063457506001610579565b600654600061010090910460ff16111561067257600654610100810460ff90811691811660020216111561066a57506001610579565b506000610579565b50600090565b8154818355818115116106a4576002028160020283600052602060002091820191016106a491906106a9565b505050565b61057991905b808211156106e157805473ffffffffffffffffffffffffffffffffffffffff19168155600060018201556002016106af565b50905600a165627a7a72305820a1c703c914058b881cb39ac1178346dabb8f1c94a9402969e1787e70ca3c9d310029",
  "source": "pragma solidity ^0.4.17;\r\n\r\ncontract MasterWill{\r\n\r\n    mapping(address=>Will) public allWills;\r\n\r\n    function MasterWill() public {\r\n        //nothing here\r\n    }\r\n\r\n    function addWill(uint256 _endtime) public returns (address) {\r\n        Will will = new Will(_endtime, msg.sender);\r\n        allWills[msg.sender] = will;\r\n        return address(will);\r\n    }\r\n\r\n    function getWill() public view returns (address) {\r\n        return address(allWills[msg.sender]);\r\n    }\r\n\r\n}\r\n\r\ncontract Token {\r\n  function balanceOf(address tokenOwner) public constant returns (uint256){}\r\n  function transfer(address to, uint256 tokens) public returns (bool) {}\r\n}\r\n\r\ncontract Will{\r\n\r\n    struct Beneficiary {\r\n        address person;\r\n        uint256 amount;\r\n    }\r\n\r\n    struct Trustee {\r\n        bool permission;\r\n        bool vote;\r\n    }\r\n\r\n    uint256 public totalTokens = 0;\r\n    uint256 public tokensUsed = 0;\r\n    address public owner;\r\n    uint256 public endTime;\r\n    Beneficiary[] beneficiaries;\r\n    mapping(address=>Trustee) trustees;\r\n    uint8 numYes = 0;\r\n    uint8 numTrustees = 0;\r\n\r\n\r\n\r\n    // up to the person to give the person this contract the\r\n    // access to their propy tokens\r\n    address public propyToken = 0x2869b5844cc6ad66d19f3cebccf17c0062fdcd83;\r\n    Token accessToken = Token(propyToken);\r\n\r\n    modifier onlyOwner {\r\n        require(msg.sender == owner);\r\n        _;\r\n    }\r\n\r\n    modifier isDead {\r\n        require(checkDeath()==true);\r\n        _;\r\n    }\r\n\r\n    // constructor\r\n    function Will(uint256 _endTime, address _owner) public {\r\n        endTime = _endTime;\r\n        owner = _owner;\r\n    }\r\n\r\n    function getNumTokens() public constant returns (uint256) {\r\n        totalTokens = accessToken.balanceOf(address(this));\r\n        return totalTokens;\r\n    }\r\n\r\n    function setBeneficiary(address _beneficiary, uint256 _amount) onlyOwner public {\r\n        require((totalTokens-tokensUsed-_amount) > 0);\r\n        tokensUsed += _amount;\r\n        beneficiaries.push(Beneficiary(_beneficiary, _amount));\r\n    }\r\n\r\n    function setTrustee(address _trustee) public onlyOwner {\r\n        numTrustees += 1;\r\n        trustees[_trustee]=Trustee(true, false);\r\n    }\r\n\r\n    function declareDead() public {\r\n        require(trustees[msg.sender].permission==true);\r\n        require(trustees[msg.sender].vote==false);\r\n        trustees[msg.sender].vote=true;\r\n        numYes += 1;\r\n    }\r\n\r\n    // conditions to check: time is more than kill switch OR\r\n    // more than half of trustees said yes\r\n    function checkDeath() view public returns (bool) {\r\n        if(now > endTime) {\r\n            return true;\r\n        }\r\n        if(numTrustees > 0) {\r\n            if(numYes*2 > numTrustees) {\r\n                return true;\r\n            }\r\n            return false;\r\n        }\r\n        return false;\r\n    }\r\n\r\n    function sendFunds() public isDead {\r\n        for(uint i=0; i<beneficiaries.length; i++) {\r\n            accessToken.transfer(beneficiaries[i].person, beneficiaries[i].amount);\r\n        }\r\n    }\r\n\r\n    //use in case you want your tokens back\r\n    function destroy() public onlyOwner {\r\n        accessToken.transfer(owner, getNumTokens());\r\n        selfdestruct(owner);\r\n    }\r\n}\r\n",
  "sourcePath": "D:\\WCEF Hackathon\\cov2\\Covenant\\contracts\\MasterWill.sol",
  "compiler": {
    "name": "solc",
    "version": "0.4.18+commit.9cf6e910.Emscripten.clang"
  },
  "schemaVersion": "1.0.1",
  "updatedAt": "2018-01-14T14:59:34.716Z"
}