{
  "contractName": "Will",
  "abi": [
    {
      "constant": true,
      "inputs": [],
      "name": "tokensUsed",
      "outputs": [
        {
          "name": "",
          "type": "uint256"
        }
      ],
      "payable": false,
      "stateMutability": "view",
      "type": "function"
    },
    {
      "constant": true,
      "inputs": [],
      "name": "endTime",
      "outputs": [
        {
          "name": "",
          "type": "uint256"
        }
      ],
      "payable": false,
      "stateMutability": "view",
      "type": "function"
    },
    {
      "constant": true,
      "inputs": [],
      "name": "numTrustees",
      "outputs": [
        {
          "name": "",
          "type": "uint8"
        }
      ],
      "payable": false,
      "stateMutability": "view",
      "type": "function"
    },
    {
      "constant": false,
      "inputs": [],
      "name": "declareDead",
      "outputs": [],
      "payable": false,
      "stateMutability": "nonpayable",
      "type": "function"
    },
    {
      "constant": false,
      "inputs": [
        {
          "name": "_beneficiary",
          "type": "address"
        },
        {
          "name": "_amount",
          "type": "uint256"
        }
      ],
      "name": "setBeneficiary",
      "outputs": [],
      "payable": false,
      "stateMutability": "nonpayable",
      "type": "function"
    },
    {
      "constant": true,
      "inputs": [],
      "name": "totalTokens",
      "outputs": [
        {
          "name": "",
          "type": "uint256"
        }
      ],
      "payable": false,
      "stateMutability": "view",
      "type": "function"
    },
    {
      "constant": false,
      "inputs": [],
      "name": "destroy",
      "outputs": [],
      "payable": false,
      "stateMutability": "nonpayable",
      "type": "function"
    },
    {
      "constant": false,
      "inputs": [],
      "name": "sendFunds",
      "outputs": [],
      "payable": false,
      "stateMutability": "nonpayable",
      "type": "function"
    },
    {
      "constant": true,
      "inputs": [],
      "name": "owner",
      "outputs": [
        {
          "name": "",
          "type": "address"
        }
      ],
      "payable": false,
      "stateMutability": "view",
      "type": "function"
    },
    {
      "constant": true,
      "inputs": [],
      "name": "tokensLeft",
      "outputs": [
        {
          "name": "",
          "type": "uint256"
        }
      ],
      "payable": false,
      "stateMutability": "view",
      "type": "function"
    },
    {
      "constant": false,
      "inputs": [
        {
          "name": "_trustee",
          "type": "address"
        }
      ],
      "name": "setTrustee",
      "outputs": [],
      "payable": false,
      "stateMutability": "nonpayable",
      "type": "function"
    },
    {
      "constant": true,
      "inputs": [
        {
          "name": "",
          "type": "address"
        }
      ],
      "name": "tokens",
      "outputs": [
        {
          "name": "",
          "type": "uint256"
        }
      ],
      "payable": false,
      "stateMutability": "view",
      "type": "function"
    },
    {
      "constant": true,
      "inputs": [
        {
          "name": "",
          "type": "uint256"
        }
      ],
      "name": "beneficiaries",
      "outputs": [
        {
          "name": "person",
          "type": "address"
        },
        {
          "name": "amount",
          "type": "uint256"
        }
      ],
      "payable": false,
      "stateMutability": "view",
      "type": "function"
    },
    {
      "constant": true,
      "inputs": [],
      "name": "checkDeath",
      "outputs": [
        {
          "name": "",
          "type": "bool"
        }
      ],
      "payable": false,
      "stateMutability": "view",
      "type": "function"
    },
    {
      "constant": true,
      "inputs": [],
      "name": "numYes",
      "outputs": [
        {
          "name": "",
          "type": "uint8"
        }
      ],
      "payable": false,
      "stateMutability": "view",
      "type": "function"
    },
    {
      "inputs": [],
      "payable": false,
      "stateMutability": "nonpayable",
      "type": "constructor"
    }
  ],
  "bytecode": "0x60606040526103e860009081556001556006805461ffff19169055341561002557600080fd5b60028054600160a060020a03191633600160a060020a03161790556106a38061004f6000396000f3006060604052600436106100da5763ffffffff7c01000000000000000000000000000000000000000000000000000000006000350416632575c3bf81146100df5780633197cbb6146101045780634baa6901146101175780636f92e149146101405780636fd1f270146101555780637e1c0c091461017757806383197ef01461018a5780638d68cf591461019d5780638da5cb5b146101b0578063b31f8f93146101df578063d0d1ea70146101f2578063e486033914610211578063efeb5e5814610230578063f262293714610268578063f8f251d81461028f575b600080fd5b34156100ea57600080fd5b6100f26102a2565b60405190815260200160405180910390f35b341561010f57600080fd5b6100f26102a8565b341561012257600080fd5b61012a6102ae565b60405160ff909116815260200160405180910390f35b341561014b57600080fd5b6101536102bc565b005b341561016057600080fd5b610153600160a060020a036004351660243561034e565b341561018257600080fd5b6100f26103ee565b341561019557600080fd5b6101536103f4565b34156101a857600080fd5b610153610436565b34156101bb57600080fd5b6101c36104ca565b604051600160a060020a03909116815260200160405180910390f35b34156101ea57600080fd5b6100f26104d9565b34156101fd57600080fd5b610153600160a060020a03600435166104e4565b341561021c57600080fd5b6100f2600160a060020a0360043516610573565b341561023b57600080fd5b610246600435610585565b604051600160a060020a03909216825260208201526040908101905180910390f35b341561027357600080fd5b61027b6105bb565b604051901515815260200160405180910390f35b341561029a57600080fd5b61012a610601565b60015481565b60035481565b600654610100900460ff1681565b600160a060020a03331660009081526005602052604090205460ff1615156001146102e657600080fd5b33600160a060020a0316600090815260056020526040902054610100900460ff161561031157600080fd5b600160a060020a0333166000908152600560205260409020805461ff0019166101001790556006805460ff8181166001011660ff19909116179055565b60025433600160a060020a0390811691161461036957600080fd5b60018054820181556004805490918101610383838261060a565b9160005260206000209060020201600060408051908101604052600160a060020a0386168152602081018590529190508151815473ffffffffffffffffffffffffffffffffffffffff1916600160a060020a0391909116178155602082015181600101555050505050565b60005481565b60025433600160a060020a0390811691161461040f57600080fd5b6000805460028054600160a060020a03908116845260076020526040909320919091555416ff5b60006104406105bb565b151560011461044e57600080fd5b5060005b6004548110156104c757600480548290811061046a57fe5b9060005260206000209060020201600101546007600060048481548110151561048f57fe5b60009182526020808320600290920290910154600160a060020a03168352820192909252604001902080549091019055600101610452565b50565b600254600160a060020a031681565b600154600054035b90565b60025433600160a060020a039081169116146104ff57600080fd5b6006805460ff61010080830482166001019091160261ff00199091161790556040805190810160409081526001825260006020808401829052600160a060020a038516825260059052208151815460ff1916901515178155602082015181549015156101000261ff00199091161790555050565b60076020526000908152604090205481565b600480548290811061059357fe5b600091825260209091206002909102018054600190910154600160a060020a03909116915082565b600654600090610100900460ff16819011156105fb57600654610100810460ff9081169181166002021611156105f3575060016104e1565b5060006104e1565b50600090565b60065460ff1681565b81548183558181151161063657600202816002028360005260206000209182019101610636919061063b565b505050565b6104e191905b8082111561067357805473ffffffffffffffffffffffffffffffffffffffff1916815560006001820155600201610641565b50905600a165627a7a723058202d32121dcc9a81d7e0a3832f6e0364c3e2cb7d70ad280b8991344c29eb90ed410029",
  "source": "pragma solidity ^0.4.17;\r\n\r\ncontract Token {\r\n  function balanceOf(address tokenOwner) public constant returns (uint256){}\r\n  function transfer(address to, uint256 tokens) public returns (bool) {}\r\n}\r\n\r\ncontract Will{\r\n\r\n    struct Beneficiary {\r\n        address person;\r\n        uint256 amount;\r\n    }\r\n\r\n    struct Trustee {\r\n        bool permission;\r\n        bool vote;\r\n    }\r\n\r\n    uint256 public totalTokens = 1000;\r\n    uint256 public tokensUsed = 0;\r\n    address public owner;\r\n    uint256 public endTime;\r\n    Beneficiary[] public beneficiaries;\r\n    mapping(address=>Trustee) trustees;\r\n    uint8 public numYes = 0;\r\n    uint8 public numTrustees = 0;\r\n\r\n    mapping(address=>uint256) public tokens;\r\n\r\n\r\n\r\n    // up to the person to give the person this contract the\r\n    // access to their propy tokens\r\n    // address public propyToken = 0x2869b5844cc6ad66d19f3cebccf17c0062fdcd83;\r\n\r\n    // Token accessToken = Token(propyToken);\r\n\r\n    modifier onlyOwner {\r\n        require(msg.sender == owner);\r\n        _;\r\n    }\r\n\r\n    modifier isDead {\r\n        require(checkDeath()==true);\r\n        _;\r\n    }\r\n\r\n    // constructor\r\n    function Will() public {\r\n        owner = msg.sender;\r\n    }\r\n\r\n    function tokensLeft() public constant returns (uint256) {\r\n        // totalTokens = accessToken.balanceOf(address(this));\r\n        return totalTokens - tokensUsed;\r\n    }\r\n\r\n    function setBeneficiary(address _beneficiary, uint256 _amount) onlyOwner public {\r\n        // require((totalTokens-tokensUsed-_amount) > 0);\r\n        tokensUsed += _amount;\r\n        beneficiaries.push(Beneficiary(_beneficiary, _amount));\r\n    }\r\n\r\n    function setTrustee(address _trustee) public onlyOwner {\r\n        numTrustees += 1;\r\n        trustees[_trustee]=Trustee(true, false);\r\n    }\r\n\r\n    function declareDead() public {\r\n        require(trustees[msg.sender].permission==true);\r\n        require(trustees[msg.sender].vote==false);\r\n        trustees[msg.sender].vote=true;\r\n        numYes += 1;\r\n    }\r\n\r\n    // conditions to check: time is more than kill switch OR\r\n    // more than half of trustees said yes\r\n    function checkDeath() view public returns (bool) {\r\n        if(numTrustees > 0) {\r\n            if(numYes*2 > numTrustees) {\r\n                return true;\r\n            }\r\n            return false;\r\n        }\r\n        return false;\r\n    }\r\n\r\n    function sendFunds() public isDead {\r\n        for(uint i=0; i<beneficiaries.length; i++) {\r\n            // accessToken.transfer(beneficiaries[i].person, beneficiaries[i].amount);\r\n            tokens[beneficiaries[i].person] += beneficiaries[i].amount;\r\n        }\r\n    }\r\n\r\n    //use in case you want your tokens back\r\n    function destroy() public onlyOwner {\r\n        // accessToken.transfer(owner, getNumTokens());\r\n        tokens[owner] = totalTokens;\r\n        selfdestruct(owner);\r\n    }\r\n}\r\n",
  "sourcePath": "C:\\Users\\Nagaganesh Jaladanki\\OneDrive\\Documents\\Coding\\Legacy\\contracts\\Will.sol",
  "compiler": {
    "name": "solc",
    "version": "0.4.18+commit.9cf6e910.Emscripten.clang"
  },
  "schemaVersion": "1.0.1",
  "updatedAt": "2018-01-17T16:27:42.010Z"
}